:03000000020006F5
:03005F0002000399
:030003000207CE23
:20006200C008858108AC82AD83AEF0FFE5812409F581E5082409F8A2AFE433F6C2AF8CF83F
:200082008DF98EFA8FFB75F30475F2017401B5F20280F9A80808A6E408760008760008769F
:2000A20000AAE57B007E008E078B068A037A00A80808EA46F6EB0846F6EE0846F6EF08460D
:2000C200F6ACE67D008D078C067C007D00A80808E6420408E6420508E6420608E64207E58F
:2000E200082405F8A60408A60508A60608A607AAE78A07E4FAFBFEE5082405F8E6420208D6
:20010200E6420308E6420608E64207E5082409F8E624FF92AF8A828B838EF0EF850881D084
:200122000822C008858108AC82AD83AEF0FFA2AFE433FBC2AF8CF88DF98EFA8FFBE50824C1
:20014200FAF886F4E50824FAF80886F5E50824FAF8080886F6E50824FAF808080886F7750F
:20016200F30575F2017401B5F20280F9EB24FF92AFD00822C008E581F508240CF581AF823B
:2001820090000075F0027403C007120062AB82AC83ADF0FED007E5082405F8A60308A6047D
:2001A20008A60508A6068FF005F0E5082409F876010876000876000876001818188012E69F
:2001C20026F608E633F608E633F608E633F6181818D5F0EBE50824FDF8E6601EE508240544
:2001E200F8E5082409F9E746FB09E70846FC09E70846FE09E70846FF8034E5082409F8A9A8
:200202000809E6F4F708E6F409F708E6F409F708E6F409F7E5082405F8A90809E756FB094B
:20022200E70856FC09E70856FE09E70856FFC003C004C006C00790000075F002740312014D
:2002420024E58124FCF581850881D00822C008E581F5082404F581AF8290000475F002740B
:2002620003C007120062AB82AC83ADF0FED007A80808A60308A60408A60508A6068FF00572
:20028200F07A017D007E007F00800CEA2AFAED33FDEE33FEEF33FFD5F0F1A80808E64202E8
:2002A20008E6420508E6420608E64207C002C005C006C00790000475F0027403120124E5F8
:2002C2008124FCF581850881D00822C008E581F5082404F581AF8290000475F0027403C0D1
:2002E20007120062AB82AC83ADF0FED007A80808A60308A60408A60508A6068FF005F07A4B
:20030200017D007E007F00800CEA2AFAED33FDEE33FEEF33FFD5F0F1EAF4FAEDF4FDEEF41B
:20032200FEEFF4FFA80808E6520208E6520508E6520608E65207C002C005C006C007900073
:200342000475F0027403120124E58124FCF581850881D00822AF8290005075F0027403C0CF
:2003620007120062AB82AC83ADF0FED0078FF005F0800DC3EE13FEED13FDEC13FCEB13FB7E
:20038200D5F0F05303018B8222C0088581080581AE82AF838E048F051EBEFF011FEC4D60A8
:2003A20015A80808760AA808088605A80808ED14F6ED60E080F01581D00822AE82AF838EDF
:2003C200048F051EBEFF011FEC4D60109003E8C007C00612038BD006D00780E322AF827E56
:2003E200FF8E051EED601875821AC007C006120357AD82D006D007EDB507E67582012275E2
:20040200820022C008858108C082C083C0F0E4C0E075821A120176158175821A12024F9073
:2004220000141203BD75821A1202CD90002812038B7582001203DFE58260147582011203B7
:20044200DFE582600A7582001203DFE582700675820102056C7D007E007A00758201C00684
:20046200C005C0021203DFE582D002D005D006700675820202056C900028C006C005C00234
:2004820012038BD002D005D0068E07EF2FFF75821AC007C005C002120357AE82D002D005E9
:2004A200D007EE42078F06758200C006C005C0021203DFE582D002D005D00670067582020C
:2004C20002056C0ABA08004092A80808ED26FAE40836FB0886048A828B838CF0EE120938BE
:2004E2000DBD05005003020459A8080886820886830886F01209F1FCA80808740126FAE4F1
:200502000836FB0886078A828B838FF01209F1FA2CFCA80808740226FDE40836FE0886073E
:200522008D828E838FF01209F12CFCA80808740326FDE40836FE0886078D828E838FF0122E
:2005420009F12CFCA80808740426FDE40836FE0886078D828E838FF01209F1FDECB505021F
:2005620080057582038003758200850881D00822C008858108C082C083C0F0E581240AF5E4
:2005820081A8080886820886830886F01209F1FC7B00C004C003900064120953AB82AC83C1
:2005A20015811581A80808740126FAE40836FE0886078A828E838FF01209F17F002BFBEFCF
:2005C2003CFCE508240CF8A60308A604A80808740226FBE40836FC0886058B828C838DF0D8
:2005E2001209F1FBFC53047F7D00C003C004C005900064120953AC82AD8315811581D00398
:20060200A80808740326FAE40836FE0886078A828E838FF01209F1FA7F002CFCEF3DFDEB77
:2006220030E707C3E49CFCE49DFDE508240CF8C3741096742708964018EC9460ED64809415
:2006420070400E74409C749F8DF063F08095F050067582000207C8E508240CF88602088659
:2006620003E4E5082404F8080808A60318A6021818760008E4F6FEFFE5082404F8E6420445
:2006820008E6420508E6420608E64207C004C005C006C00790602475F0027405120124E590
:2006A2008124FCF581E50824FBF8E5082404F9E6F708E609F708E609F7E5082404F8868241
:2006C2000886830886F01209F1FAA31209F1FBA31209F1FCA31209F1FF0ABA00090BBB00ED
:2006E200050CBC00010FE5082404F886820886830886F0EA120938A3EB120938A3EC1209AF
:2007020038A3EF120938E5082404F886820886830886F0E5082408F91209F1F7A31209F152
:2007220009F7A31209F109F7A31209F109F7EA4B4C4F7035E5082408F8740126FDE4083619
:20074200FEE40836FCE40836FFE5082404F886820886830886F0ED120938A3EE120938A3EF
:20076200EC120938A3EF120938E5082404F886820886830886F01209F1FCA31209F1FDA358
:200782001209F1FEA31209F1FFC004C005C006C00790602875F0027405120124E58124FCD4
:2007A200F581744BC0E0744EC0E0744CC0E07442C0E090601C75F0027405120124E581249D
:2007C200FCF581758201850881D00822C008E581F5082409F5817F00E5082406F8E4F60867
:2007E200F608F608F6C007C0E075820D120176158175820D12024F75821A1202CD744BC0A3
:20080200E0744EC0E0744CC0E07442C0E090601C75F0027405120124E58124FCF581D007E8
:20082200C007C00775820D1201761581D007EFB401009200E433FFAE080E8E037C007D4054
:200842008B828C838DF0C007C006120405AD82D006D007BD0127C0077431C0E014C0E07460
:2008620052C0E07445C0E090601C75F0027405120124E58124FCF581D007020925BD02271F
:20088200C0077432C0E07430C0E07452C0E07445C0E090601C75F0027405120124E5812499
:2008A200FCF581D007807CBD0327C0077433C0E07430C0E07452C0E07445C0E090601C7578
:2008C200F0027405120124E58124FCF581D0078052C007E5082406FD7C007B408E027E00AF
:2008E2007F40C005C004C0038A828E838FF0120572AF82158115811581EFD0077025C007B1
:200902007434C0E07430C0E07452C0E07445C0E090601C75F0027405120124E58124FCF5EC
:1609220081D0079003E8C0071203BDD007020822850881D0082248
:06003500E478FFF6D8FD9F
:200013007900E94400601B7A00900A11780075A020E493F2A308B8000205A0D9F4DAF27559
:02003300A0FF2C
:1B09380020F71130F6138883A88220F509F6A8837583002280FEF280F5F022BE
:20095300C008858108C082C083E5812405F581AF080FE5082403F8A607087600087640E584
:200973000824FCFD7E007F40E5082406F9A808088604E50824FCF886038CF0EBA4F709A770
:20099300F0E508240604F98704A80808860374012DFAE43EFE8A828E838FF01209F18BF095
:2009B300A4FBE5082403F8740126FDE40836FE0886078D828E838FF01209F1FDE50824FC77
:1E09D300F886078DF0EFA42B2CF7E5082406F987060987078E828F83850881D00822C5
:20003B007800E84400600A790075A020E4F309D8FC7800E84400600C7900902000E4F0A385
:04005B00D8FCD9FAFA
:0D000600758120120A0DE5826003020003DF
:1C09F10020F71430F6148883A88220F507E6A88375830022E280F7E49322E02215
:040A0D0075820022CC
:00000001FF
